{
  "contractName": "Todo",
  "abi": [
    {
      "inputs": [],
      "stateMutability": "nonpayable",
      "type": "constructor"
    },
    {
      "anonymous": false,
      "inputs": [
        {
          "indexed": true,
          "internalType": "uint256",
          "name": "id",
          "type": "uint256"
        },
        {
          "indexed": false,
          "internalType": "bool",
          "name": "isCompleted",
          "type": "bool"
        },
        {
          "indexed": true,
          "internalType": "address",
          "name": "user",
          "type": "address"
        }
      ],
      "name": "TaskCompleted",
      "type": "event"
    },
    {
      "anonymous": false,
      "inputs": [
        {
          "indexed": true,
          "internalType": "uint256",
          "name": "id",
          "type": "uint256"
        },
        {
          "indexed": false,
          "internalType": "string",
          "name": "taskContent",
          "type": "string"
        },
        {
          "indexed": true,
          "internalType": "address",
          "name": "creator",
          "type": "address"
        }
      ],
      "name": "TaskCreated",
      "type": "event"
    },
    {
      "inputs": [],
      "name": "taskCount",
      "outputs": [
        {
          "internalType": "uint256",
          "name": "",
          "type": "uint256"
        }
      ],
      "stateMutability": "view",
      "type": "function",
      "constant": true
    },
    {
      "inputs": [
        {
          "internalType": "uint256",
          "name": "",
          "type": "uint256"
        }
      ],
      "name": "tasks",
      "outputs": [
        {
          "internalType": "uint256",
          "name": "id",
          "type": "uint256"
        },
        {
          "internalType": "string",
          "name": "taskContent",
          "type": "string"
        },
        {
          "internalType": "bool",
          "name": "isCompleted",
          "type": "bool"
        },
        {
          "internalType": "uint256",
          "name": "createdAt",
          "type": "uint256"
        },
        {
          "internalType": "address",
          "name": "creator",
          "type": "address"
        }
      ],
      "stateMutability": "view",
      "type": "function",
      "constant": true
    },
    {
      "inputs": [
        {
          "internalType": "string",
          "name": "_taskContent",
          "type": "string"
        }
      ],
      "name": "createTask",
      "outputs": [],
      "stateMutability": "nonpayable",
      "type": "function"
    },
    {
      "inputs": [
        {
          "internalType": "uint256",
          "name": "_id",
          "type": "uint256"
        }
      ],
      "name": "completeTask",
      "outputs": [],
      "stateMutability": "nonpayable",
      "type": "function"
    },
    {
      "inputs": [
        {
          "internalType": "uint256",
          "name": "_id",
          "type": "uint256"
        }
      ],
      "name": "getTask",
      "outputs": [
        {
          "internalType": "uint256",
          "name": "id",
          "type": "uint256"
        },
        {
          "internalType": "string",
          "name": "content",
          "type": "string"
        },
        {
          "internalType": "bool",
          "name": "completed",
          "type": "bool"
        },
        {
          "internalType": "uint256",
          "name": "createdAt",
          "type": "uint256"
        },
        {
          "internalType": "address",
          "name": "creator",
          "type": "address"
        }
      ],
      "stateMutability": "view",
      "type": "function",
      "constant": true
    },
    {
      "inputs": [],
      "name": "getAllTasks",
      "outputs": [
        {
          "components": [
            {
              "internalType": "uint256",
              "name": "id",
              "type": "uint256"
            },
            {
              "internalType": "string",
              "name": "taskContent",
              "type": "string"
            },
            {
              "internalType": "bool",
              "name": "isCompleted",
              "type": "bool"
            },
            {
              "internalType": "uint256",
              "name": "createdAt",
              "type": "uint256"
            },
            {
              "internalType": "address",
              "name": "creator",
              "type": "address"
            }
          ],
          "internalType": "struct Todo.Task[]",
          "name": "",
          "type": "tuple[]"
        }
      ],
      "stateMutability": "view",
      "type": "function",
      "constant": true
    },
    {
      "inputs": [
        {
          "internalType": "uint256",
          "name": "_id",
          "type": "uint256"
        }
      ],
      "name": "deleteTask",
      "outputs": [],
      "stateMutability": "nonpayable",
      "type": "function"
    }
  ],
  "bytecode": "0x60806040526000805534801561001457600080fd5b50611471806100246000396000f3fe608060405234801561001057600080fd5b506004361061007d5760003560e01c8063779900b41161005b578063779900b4146100ee5780638d9776721461010c578063b6cb58a514610140578063e1e295581461015e5761007d565b8063111002aa146100825780631d65e77e1461009e578063560f3192146100d2575b600080fd5b61009c60048036038101906100979190610b6c565b61017a565b005b6100b860048036038101906100b39190610beb565b610313565b6040516100c9959493929190610d02565b60405180910390f35b6100ec60048036038101906100e79190610beb565b6104d5565b005b6100f661059c565b6040516101039190610f0b565b60405180910390f35b61012660048036038101906101219190610beb565b610781565b604051610137959493929190610d02565b60405180910390f35b61014861086c565b6040516101559190610f2d565b60405180910390f35b61017860048036038101906101739190610beb565b610872565b005b60008151116101be576040517f08c379a00000000000000000000000000000000000000000000000000000000081526004016101b590610fba565b60405180910390fd5b6000808154809291906101d090611009565b91905055506040518060a0016040528060005481526020018281526020016000151581526020014281526020013373ffffffffffffffffffffffffffffffffffffffff16815250600160008054815260200190815260200160002060008201518160000155602082015181600101908161024a919061125d565b5060408201518160020160006101000a81548160ff0219169083151502179055506060820151816003015560808201518160040160006101000a81548173ffffffffffffffffffffffffffffffffffffffff021916908373ffffffffffffffffffffffffffffffffffffffff1602179055509050503373ffffffffffffffffffffffffffffffffffffffff166000547fdc691e972cb25fd6e968744b5a6416d42a052ac1305e3b7ed6777b621304b7f283604051610308919061132f565b60405180910390a350565b6000606060008060008560008111801561032f57506000548111155b61036e576040517f08c379a00000000000000000000000000000000000000000000000000000000081526004016103659061139d565b60405180910390fd5b6000600160008981526020019081526020016000206040518060a0016040529081600082015481526020016001820180546103a890611080565b80601f01602080910402602001604051908101604052809291908181526020018280546103d490611080565b80156104215780601f106103f657610100808354040283529160200191610421565b820191906000526020600020905b81548152906001019060200180831161040457829003601f168201915b505050505081526020016002820160009054906101000a900460ff16151515158152602001600382015481526020016004820160009054906101000a900473ffffffffffffffffffffffffffffffffffffffff1673ffffffffffffffffffffffffffffffffffffffff1673ffffffffffffffffffffffffffffffffffffffff168152505090508060000151816020015182604001518360600151846080015196509650965096509650505091939590929450565b806000811180156104e857506000548111155b610527576040517f08c379a000000000000000000000000000000000000000000000000000000000815260040161051e9061139d565b60405180910390fd5b60016000838152602001908152602001600020600080820160009055600182016000610553919061096e565b6002820160006101000a81549060ff021916905560038201600090556004820160006101000a81549073ffffffffffffffffffffffffffffffffffffffff021916905550505050565b60606000805467ffffffffffffffff8111156105bb576105ba610a41565b5b6040519080825280602002602001820160405280156105f457816020015b6105e16109ae565b8152602001906001900390816105d95790505b5090506000600190505b600054811161077957600160008281526020019081526020016000206040518060a00160405290816000820154815260200160018201805461063f90611080565b80601f016020809104026020016040519081016040528092919081815260200182805461066b90611080565b80156106b85780601f1061068d576101008083540402835291602001916106b8565b820191906000526020600020905b81548152906001019060200180831161069b57829003601f168201915b505050505081526020016002820160009054906101000a900460ff16151515158152602001600382015481526020016004820160009054906101000a900473ffffffffffffffffffffffffffffffffffffffff1673ffffffffffffffffffffffffffffffffffffffff1673ffffffffffffffffffffffffffffffffffffffff16815250508260018361074a91906113bd565b8151811061075b5761075a6113f1565b5b6020026020010181905250808061077190611009565b9150506105fe565b508091505090565b60016020528060005260406000206000915090508060000154908060010180546107aa90611080565b80601f01602080910402602001604051908101604052809291908181526020018280546107d690611080565b80156108235780601f106107f857610100808354040283529160200191610823565b820191906000526020600020905b81548152906001019060200180831161080657829003601f168201915b5050505050908060020160009054906101000a900460ff16908060030154908060040160009054906101000a900473ffffffffffffffffffffffffffffffffffffffff16905085565b60005481565b8060008111801561088557506000548111155b6108c4576040517f08c379a00000000000000000000000000000000000000000000000000000000081526004016108bb9061139d565b60405180910390fd5b60006001600084815260200190815260200160002090508060020160009054906101000a900460ff16158160020160006101000a81548160ff0219169083151502179055503373ffffffffffffffffffffffffffffffffffffffff16837f6771bb9524f76c50a073137e01a6f75707d5ba01c94dc8f9b9a79aa1cb9e1fc38360020160009054906101000a900460ff166040516109619190611420565b60405180910390a3505050565b50805461097a90611080565b6000825580601f1061098c57506109ab565b601f0160209004906000526020600020908101906109aa91906109f5565b5b50565b6040518060a00160405280600081526020016060815260200160001515815260200160008152602001600073ffffffffffffffffffffffffffffffffffffffff1681525090565b5b80821115610a0e5760008160009055506001016109f6565b5090565b6000604051905090565b600080fd5b600080fd5b600080fd5b600080fd5b6000601f19601f8301169050919050565b7f4e487b7100000000000000000000000000000000000000000000000000000000600052604160045260246000fd5b610a7982610a30565b810181811067ffffffffffffffff82111715610a9857610a97610a41565b5b80604052505050565b6000610aab610a12565b9050610ab78282610a70565b919050565b600067ffffffffffffffff821115610ad757610ad6610a41565b5b610ae082610a30565b9050602081019050919050565b82818337600083830152505050565b6000610b0f610b0a84610abc565b610aa1565b905082815260208101848484011115610b2b57610b2a610a2b565b5b610b36848285610aed565b509392505050565b600082601f830112610b5357610b52610a26565b5b8135610b63848260208601610afc565b91505092915050565b600060208284031215610b8257610b81610a1c565b5b600082013567ffffffffffffffff811115610ba057610b9f610a21565b5b610bac84828501610b3e565b91505092915050565b6000819050919050565b610bc881610bb5565b8114610bd357600080fd5b50565b600081359050610be581610bbf565b92915050565b600060208284031215610c0157610c00610a1c565b5b6000610c0f84828501610bd6565b91505092915050565b610c2181610bb5565b82525050565b600081519050919050565b600082825260208201905092915050565b60005b83811015610c61578082015181840152602081019050610c46565b60008484015250505050565b6000610c7882610c27565b610c828185610c32565b9350610c92818560208601610c43565b610c9b81610a30565b840191505092915050565b60008115159050919050565b610cbb81610ca6565b82525050565b600073ffffffffffffffffffffffffffffffffffffffff82169050919050565b6000610cec82610cc1565b9050919050565b610cfc81610ce1565b82525050565b600060a082019050610d176000830188610c18565b8181036020830152610d298187610c6d565b9050610d386040830186610cb2565b610d456060830185610c18565b610d526080830184610cf3565b9695505050505050565b600081519050919050565b600082825260208201905092915050565b6000819050602082019050919050565b610d9181610bb5565b82525050565b600082825260208201905092915050565b6000610db382610c27565b610dbd8185610d97565b9350610dcd818560208601610c43565b610dd681610a30565b840191505092915050565b610dea81610ca6565b82525050565b610df981610ce1565b82525050565b600060a083016000830151610e176000860182610d88565b5060208301518482036020860152610e2f8282610da8565b9150506040830151610e446040860182610de1565b506060830151610e576060860182610d88565b506080830151610e6a6080860182610df0565b508091505092915050565b6000610e818383610dff565b905092915050565b6000602082019050919050565b6000610ea182610d5c565b610eab8185610d67565b935083602082028501610ebd85610d78565b8060005b85811015610ef95784840389528151610eda8582610e75565b9450610ee583610e89565b925060208a01995050600181019050610ec1565b50829750879550505050505092915050565b60006020820190508181036000830152610f258184610e96565b905092915050565b6000602082019050610f426000830184610c18565b92915050565b7f4c6520636f6e74656e75206465206c61207461636865206e652070657574207060008201527f6173206574726520766964650000000000000000000000000000000000000000602082015250565b6000610fa4602c83610c32565b9150610faf82610f48565b604082019050919050565b60006020820190508181036000830152610fd381610f97565b9050919050565b7f4e487b7100000000000000000000000000000000000000000000000000000000600052601160045260246000fd5b600061101482610bb5565b91507fffffffffffffffffffffffffffffffffffffffffffffffffffffffffffffffff820361104657611045610fda565b5b600182019050919050565b7f4e487b7100000000000000000000000000000000000000000000000000000000600052602260045260246000fd5b6000600282049050600182168061109857607f821691505b6020821081036110ab576110aa611051565b5b50919050565b60008190508160005260206000209050919050565b60006020601f8301049050919050565b600082821b905092915050565b6000600883026111137fffffffffffffffffffffffffffffffffffffffffffffffffffffffffffffffff826110d6565b61111d86836110d6565b95508019841693508086168417925050509392505050565b6000819050919050565b600061115a61115561115084610bb5565b611135565b610bb5565b9050919050565b6000819050919050565b6111748361113f565b61118861118082611161565b8484546110e3565b825550505050565b600090565b61119d611190565b6111a881848461116b565b505050565b5b818110156111cc576111c1600082611195565b6001810190506111ae565b5050565b601f821115611211576111e2816110b1565b6111eb846110c6565b810160208510156111fa578190505b61120e611206856110c6565b8301826111ad565b50505b505050565b600082821c905092915050565b600061123460001984600802611216565b1980831691505092915050565b600061124d8383611223565b9150826002028217905092915050565b61126682610c27565b67ffffffffffffffff81111561127f5761127e610a41565b5b6112898254611080565b6112948282856111d0565b600060209050601f8311600181146112c757600084156112b5578287015190505b6112bf8582611241565b865550611327565b601f1984166112d5866110b1565b60005b828110156112fd578489015182556001820191506020850194506020810190506112d8565b8683101561131a5784890151611316601f891682611223565b8355505b6001600288020188555050505b505050505050565b600060208201905081810360008301526113498184610c6d565b905092915050565b7f4365747465207461636865206e27657869737465207061730000000000000000600082015250565b6000611387601883610c32565b915061139282611351565b602082019050919050565b600060208201905081810360008301526113b68161137a565b9050919050565b60006113c882610bb5565b91506113d383610bb5565b92508282039050818111156113eb576113ea610fda565b5b92915050565b7f4e487b7100000000000000000000000000000000000000000000000000000000600052603260045260246000fd5b60006020820190506114356000830184610cb2565b9291505056fea26469706673582212205e2351b4668c51ef6420f1eb8ea92a09329221cf5bbef0782800db4df84d39a764736f6c63430008130033",
  "immutableReferences": {},
  "source": "// SPDX-License-Identifier: MIT\r\npragma solidity >=0.8.2 <0.9.0;\r\n\r\ncontract Todo {\r\n    uint public taskCount = 0;\r\n    \r\n    struct Task {\r\n        uint id;\r\n        string taskContent;\r\n        bool isCompleted;\r\n        uint256 createdAt;     // Timestamp de cration\r\n        address creator;       // Qui a cr la tche\r\n    }\r\n    \r\n    // vnements amliors\r\n    event TaskCreated(uint indexed id, string taskContent, address indexed creator);\r\n    event TaskCompleted(uint indexed id, bool isCompleted, address indexed user);\r\n    \r\n    mapping (uint => Task) public tasks;\r\n    \r\n    // Modificateur pour valider qu'une tche existe\r\n    modifier taskExists(uint _id) {\r\n        require(_id > 0 && _id <= taskCount, \"Cette tache n'existe pas\");\r\n        _;  // Continue l'excution de la fonction\r\n    }\r\n    \r\n    constructor() {\r\n        // Constructeur vide pour viter les erreurs de dploiement\r\n    }\r\n    \r\n    // Fonction amliore avec validations\r\n    function createTask(string memory _taskContent) public {\r\n        // Validation : le contenu ne peut pas tre vide\r\n        require(bytes(_taskContent).length > 0, \"Le contenu de la tache ne peut pas etre vide\");\r\n        \r\n        taskCount++;\r\n        \r\n        // Stockage avec plus d'informations\r\n        tasks[taskCount] = Task({\r\n            id: taskCount,\r\n            taskContent: _taskContent,\r\n            isCompleted: false,\r\n            createdAt: block.timestamp,  // Timestamp actuel\r\n            creator: msg.sender          // Adresse de l'appelant\r\n        });\r\n        \r\n        emit TaskCreated(taskCount, _taskContent, msg.sender);\r\n    }\r\n    \r\n    // Fonction avec modificateur\r\n    function completeTask(uint _id) public taskExists(_id) {\r\n        Task storage task = tasks[_id];\r\n        task.isCompleted = !task.isCompleted;\r\n        \r\n        emit TaskCompleted(_id, task.isCompleted, msg.sender);\r\n    }\r\n    \r\n    // Nouvelle fonction : obtenir les dtails d'une tche\r\n    function getTask(uint _id) public view taskExists(_id) returns (\r\n        uint id,\r\n        string memory content,\r\n        bool completed,\r\n        uint256 createdAt,\r\n        address creator\r\n    ) {\r\n        Task memory task = tasks[_id];\r\n        return (task.id, task.taskContent, task.isCompleted, task.createdAt, task.creator);\r\n    }\r\n    \r\n    // Nouvelle fonction : obtenir toutes les tches (attention aux limites de gas)\r\n    function getAllTasks() public view returns (Task[] memory) {\r\n        Task[] memory allTasks = new Task[](taskCount);\r\n        \r\n        for (uint i = 1; i <= taskCount; i++) {\r\n            allTasks[i-1] = tasks[i];\r\n        }\r\n        \r\n        return allTasks;\r\n    }\r\n    \r\n    // Fonction pour supprimer une tche\r\n    function deleteTask(uint _id) public taskExists(_id) {\r\n        // On ne peut pas vraiment \"supprimer\" de la blockchain\r\n        // On marque comme supprime en vidant le contenu\r\n        delete tasks[_id];\r\n        \r\n        // Ou on pourrait juste marquer comme supprime\r\n        // tasks[_id].taskContent = \"[SUPPRIMEE]\";\r\n    }\r\n}",
  "sourcePath": "C:\\Users\\DELL\\Documents\\Truffle\\todos\\contracts\\Todo.sol",
  "compiler": {
    "name": "solc",
    "version": "0.8.19+commit.7dd6d404.Emscripten.clang"
  },
  "schemaVersion": "3.4.16",
  "updatedAt": "2025-07-25T21:39:52.820Z",
  "networkType": "ethereum",
  "devdoc": {
    "kind": "dev",
    "methods": {},
    "version": 1
  },
  "userdoc": {
    "kind": "user",
    "methods": {},
    "version": 1
  }
}